{
  "address": "0x5FbDB2315678afecb367f032d93F642f64180aa3",
  "abi": [
    {
      "inputs": [],
      "stateMutability": "nonpayable",
      "type": "constructor"
    },
    {
      "anonymous": false,
      "inputs": [
        {
          "indexed": true,
          "internalType": "bytes32",
          "name": "id",
          "type": "bytes32"
        }
      ],
      "name": "ChainlinkCancelled",
      "type": "event"
    },
    {
      "anonymous": false,
      "inputs": [
        {
          "indexed": true,
          "internalType": "bytes32",
          "name": "id",
          "type": "bytes32"
        }
      ],
      "name": "ChainlinkFulfilled",
      "type": "event"
    },
    {
      "anonymous": false,
      "inputs": [
        {
          "indexed": true,
          "internalType": "bytes32",
          "name": "id",
          "type": "bytes32"
        }
      ],
      "name": "ChainlinkRequested",
      "type": "event"
    },
    {
      "anonymous": false,
      "inputs": [
        {
          "indexed": true,
          "internalType": "address",
          "name": "from",
          "type": "address"
        },
        {
          "indexed": true,
          "internalType": "address",
          "name": "to",
          "type": "address"
        }
      ],
      "name": "OwnershipTransferRequested",
      "type": "event"
    },
    {
      "anonymous": false,
      "inputs": [
        {
          "indexed": true,
          "internalType": "address",
          "name": "from",
          "type": "address"
        },
        {
          "indexed": true,
          "internalType": "address",
          "name": "to",
          "type": "address"
        }
      ],
      "name": "OwnershipTransferred",
      "type": "event"
    },
    {
      "anonymous": false,
      "inputs": [
        {
          "indexed": true,
          "internalType": "bytes32",
          "name": "requestId",
          "type": "bytes32"
        },
        {
          "indexed": true,
          "internalType": "bytes",
          "name": "data",
          "type": "bytes"
        }
      ],
      "name": "RequestFulfilled",
      "type": "event"
    },
    {
      "inputs": [],
      "name": "acceptOwnership",
      "outputs": [],
      "stateMutability": "nonpayable",
      "type": "function"
    },
    {
      "inputs": [],
      "name": "data",
      "outputs": [
        {
          "internalType": "bytes",
          "name": "",
          "type": "bytes"
        }
      ],
      "stateMutability": "view",
      "type": "function"
    },
    {
      "inputs": [
        {
          "internalType": "bytes32",
          "name": "_requestId",
          "type": "bytes32"
        },
        {
          "internalType": "uint256",
          "name": "_result",
          "type": "uint256"
        }
      ],
      "name": "fulfill",
      "outputs": [],
      "stateMutability": "nonpayable",
      "type": "function"
    },
    {
      "inputs": [
        {
          "internalType": "bytes32",
          "name": "requestId",
          "type": "bytes32"
        },
        {
          "internalType": "bytes",
          "name": "bytesData",
          "type": "bytes"
        }
      ],
      "name": "fulfillBytes",
      "outputs": [],
      "stateMutability": "nonpayable",
      "type": "function"
    },
    {
      "inputs": [],
      "name": "image_url",
      "outputs": [
        {
          "internalType": "string",
          "name": "",
          "type": "string"
        }
      ],
      "stateMutability": "view",
      "type": "function"
    },
    {
      "inputs": [],
      "name": "owner",
      "outputs": [
        {
          "internalType": "address",
          "name": "",
          "type": "address"
        }
      ],
      "stateMutability": "view",
      "type": "function"
    },
    {
      "inputs": [],
      "name": "requestBytes",
      "outputs": [],
      "stateMutability": "nonpayable",
      "type": "function"
    },
    {
      "inputs": [],
      "name": "requestResult",
      "outputs": [],
      "stateMutability": "nonpayable",
      "type": "function"
    },
    {
      "inputs": [],
      "name": "result",
      "outputs": [
        {
          "internalType": "uint256",
          "name": "",
          "type": "uint256"
        }
      ],
      "stateMutability": "view",
      "type": "function"
    },
    {
      "inputs": [
        {
          "internalType": "address",
          "name": "to",
          "type": "address"
        }
      ],
      "name": "transferOwnership",
      "outputs": [],
      "stateMutability": "nonpayable",
      "type": "function"
    }
  ],
  "transactionHash": "0x23f60f06218379c16ef184493004f4d2cde38b05a536baddcd0f6e7d4fb81666",
  "args": [],
  "numDeployments": 1,
  "solcInputHash": "dce705913ef2b68c178b83d4120ba282",
  "bytecode": "0x608060405260016004553480156200001657600080fd5b50338060008073ffffffffffffffffffffffffffffffffffffffff168273ffffffffffffffffffffffffffffffffffffffff16036200008c576040517f08c379a00000000000000000000000000000000000000000000000000000000081526004016200008390620003b7565b60405180910390fd5b81600660006101000a81548173ffffffffffffffffffffffffffffffffffffffff021916908373ffffffffffffffffffffffffffffffffffffffff160217905550600073ffffffffffffffffffffffffffffffffffffffff168173ffffffffffffffffffffffffffffffffffffffff1614620001145762000113816200019d60201b60201c565b5b5050506200013c73fafedb041c0dd4fa2dc0d87a6b0979ee6fa7af5f620002ce60201b60201c565b6200016173cc79157eb46f5624204f47ab42b3906caa40eab76200031260201b60201c565b7f3239666139616131336266313436383738386237636334613530306134356238600b8190555067016345785d8a0000600c819055506200044b565b3373ffffffffffffffffffffffffffffffffffffffff168173ffffffffffffffffffffffffffffffffffffffff16036200020e576040517f08c379a0000000000000000000000000000000000000000000000000000000008152600401620002059062000429565b60405180910390fd5b80600760006101000a81548173ffffffffffffffffffffffffffffffffffffffff021916908373ffffffffffffffffffffffffffffffffffffffff1602179055508073ffffffffffffffffffffffffffffffffffffffff16600660009054906101000a900473ffffffffffffffffffffffffffffffffffffffff1673ffffffffffffffffffffffffffffffffffffffff167fed8889f560326eb138920d842192f0eb3dd22b4f139c87a2c57538e05bae127860405160405180910390a350565b80600260006101000a81548173ffffffffffffffffffffffffffffffffffffffff021916908373ffffffffffffffffffffffffffffffffffffffff16021790555050565b80600360006101000a81548173ffffffffffffffffffffffffffffffffffffffff021916908373ffffffffffffffffffffffffffffffffffffffff16021790555050565b600082825260208201905092915050565b7f43616e6e6f7420736574206f776e657220746f207a65726f0000000000000000600082015250565b60006200039f60188362000356565b9150620003ac8262000367565b602082019050919050565b60006020820190508181036000830152620003d28162000390565b9050919050565b7f43616e6e6f74207472616e7366657220746f2073656c66000000000000000000600082015250565b60006200041160178362000356565b91506200041e82620003d9565b602082019050919050565b60006020820190508181036000830152620004448162000402565b9050919050565b6124fe806200045b6000396000f3fe608060405234801561001057600080fd5b506004361061009e5760003560e01c806379ba50971161006657806379ba50971461010f578063824f4baf146101195780638da5cb5b14610137578063c2fb852314610155578063f2fde38b146101715761009e565b806311411e8a146100a35780634357855e146100ad57806365372147146100c95780636d7180d3146100e757806373d4a13a146100f1575b600080fd5b6100ab61018d565b005b6100c760048036038101906100c29190611436565b610296565b005b6100d16103a7565b6040516100de9190611485565b60405180910390f35b6100ef6103ad565b005b6100f96104d9565b6040516101069190611530565b60405180910390f35b610117610567565b005b6101216106fe565b60405161012e91906115a7565b60405180910390f35b61013f61078c565b60405161014c919061160a565b60405180910390f35b61016f600480360381019061016a919061175a565b6107b6565b005b61018b600480360381019061018691906117e2565b610924565b005b60006101a3600b543063c2fb852360e01b610938565b90506102076040518060400160405280600381526020017f67657400000000000000000000000000000000000000000000000000000000008152506040518060a001604052806062815260200161241b60629139836109699092919063ffffffff16565b6102866040518060400160405280600481526020017f70617468000000000000000000000000000000000000000000000000000000008152506040518060400160405280600581526020017f696d616765000000000000000000000000000000000000000000000000000000815250836109699092919063ffffffff16565b61029281600c5461099c565b5050565b816005600082815260200190815260200160002060009054906101000a900473ffffffffffffffffffffffffffffffffffffffff1673ffffffffffffffffffffffffffffffffffffffff163373ffffffffffffffffffffffffffffffffffffffff1614610338576040517f08c379a000000000000000000000000000000000000000000000000000000000815260040161032f90611881565b60405180910390fd5b6005600082815260200190815260200160002060006101000a81549073ffffffffffffffffffffffffffffffffffffffff0219169055807f7cc135e0cebb02c3480ae5d74d377283180a2601f8f644edf7987b009316c63a60405160405180910390a281600d81905550505050565b600d5481565b60006103c3600b5430634357855e60e01b610938565b90506104276040518060400160405280600381526020017f67657400000000000000000000000000000000000000000000000000000000008152506040518060800160405280604c815260200161247d604c9139836109699092919063ffffffff16565b6104a66040518060400160405280600481526020017f70617468000000000000000000000000000000000000000000000000000000008152506040518060400160405280600c81526020017f657468657265756d2e7573640000000000000000000000000000000000000000815250836109699092919063ffffffff16565b6104d5600a60009054906101000a900473ffffffffffffffffffffffffffffffffffffffff1682600c546109d3565b5050565b600880546104e6906118d0565b80601f0160208091040260200160405190810160405280929190818152602001828054610512906118d0565b801561055f5780601f106105345761010080835404028352916020019161055f565b820191906000526020600020905b81548152906001019060200180831161054257829003601f168201915b505050505081565b600760009054906101000a900473ffffffffffffffffffffffffffffffffffffffff1673ffffffffffffffffffffffffffffffffffffffff163373ffffffffffffffffffffffffffffffffffffffff16146105f7576040517f08c379a00000000000000000000000000000000000000000000000000000000081526004016105ee9061194d565b60405180910390fd5b6000600660009054906101000a900473ffffffffffffffffffffffffffffffffffffffff16905033600660006101000a81548173ffffffffffffffffffffffffffffffffffffffff021916908373ffffffffffffffffffffffffffffffffffffffff1602179055506000600760006101000a81548173ffffffffffffffffffffffffffffffffffffffff021916908373ffffffffffffffffffffffffffffffffffffffff1602179055503373ffffffffffffffffffffffffffffffffffffffff168173ffffffffffffffffffffffffffffffffffffffff167f8be0079c531659141344cd1fd0a4f28419497f9722a3daafe3b4186f6b6457e060405160405180910390a350565b6009805461070b906118d0565b80601f0160208091040260200160405190810160405280929190818152602001828054610737906118d0565b80156107845780601f1061075957610100808354040283529160200191610784565b820191906000526020600020905b81548152906001019060200180831161076757829003601f168201915b505050505081565b6000600660009054906101000a900473ffffffffffffffffffffffffffffffffffffffff16905090565b816005600082815260200190815260200160002060009054906101000a900473ffffffffffffffffffffffffffffffffffffffff1673ffffffffffffffffffffffffffffffffffffffff163373ffffffffffffffffffffffffffffffffffffffff1614610858576040517f08c379a000000000000000000000000000000000000000000000000000000000815260040161084f90611881565b60405180910390fd5b6005600082815260200190815260200160002060006101000a81549073ffffffffffffffffffffffffffffffffffffffff0219169055807f7cc135e0cebb02c3480ae5d74d377283180a2601f8f644edf7987b009316c63a60405160405180910390a2816040516108c991906119a9565b6040518091039020837f1a111c5dcf9a71088bd5e1797fdfaf399fec2afbb24aca247e4e3e9f4b61df9160405160405180910390a3816008908161090d9190611b6c565b5060086009908161091e9190611cc4565b50505050565b61092c610a9f565b61093581610b31565b50565b61094061132f565b61094861132f565b61095f85858584610c5f909392919063ffffffff16565b9150509392505050565b610980828460800151610d0f90919063ffffffff16565b610997818460800151610d0f90919063ffffffff16565b505050565b60006109cb600360009054906101000a900473ffffffffffffffffffffffffffffffffffffffff1684846109d3565b905092915050565b60008060045490506001816109e89190611ddb565b6004819055506000634042994660e01b60008087600001513089604001518760018c6080015160000151604051602401610a29989796959493929190611e59565b604051602081830303815290604052907bffffffffffffffffffffffffffffffffffffffffffffffffffffffff19166020820180517bffffffffffffffffffffffffffffffffffffffffffffffffffffffff83818316178352505050509050610a9486838684610d34565b925050509392505050565b600660009054906101000a900473ffffffffffffffffffffffffffffffffffffffff1673ffffffffffffffffffffffffffffffffffffffff163373ffffffffffffffffffffffffffffffffffffffff1614610b2f576040517f08c379a0000000000000000000000000000000000000000000000000000000008152600401610b2690611f2a565b60405180910390fd5b565b3373ffffffffffffffffffffffffffffffffffffffff168173ffffffffffffffffffffffffffffffffffffffff1603610b9f576040517f08c379a0000000000000000000000000000000000000000000000000000000008152600401610b9690611f96565b60405180910390fd5b80600760006101000a81548173ffffffffffffffffffffffffffffffffffffffff021916908373ffffffffffffffffffffffffffffffffffffffff1602179055508073ffffffffffffffffffffffffffffffffffffffff16600660009054906101000a900473ffffffffffffffffffffffffffffffffffffffff1673ffffffffffffffffffffffffffffffffffffffff167fed8889f560326eb138920d842192f0eb3dd22b4f139c87a2c57538e05bae127860405160405180910390a350565b610c6761132f565b610c778560800151610100610ec9565b508385600001818152505082856020019073ffffffffffffffffffffffffffffffffffffffff16908173ffffffffffffffffffffffffffffffffffffffff16815250508185604001907bffffffffffffffffffffffffffffffffffffffffffffffffffffffff191690817bffffffffffffffffffffffffffffffffffffffffffffffffffffffff191681525050849050949350505050565b610d1c8260038351610f33565b610d2f81836110b890919063ffffffff16565b505050565b60003084604051602001610d49929190612065565b604051602081830303815290604052805190602001209050846005600083815260200190815260200160002060006101000a81548173ffffffffffffffffffffffffffffffffffffffff021916908373ffffffffffffffffffffffffffffffffffffffff160217905550807fb5e6e01e79f91267dc17b4e6314d5d4d03593d2ceee0fbb452b750bd70ea5af960405160405180910390a2600260009054906101000a900473ffffffffffffffffffffffffffffffffffffffff1673ffffffffffffffffffffffffffffffffffffffff16634000aea08685856040518463ffffffff1660e01b8152600401610e3f93929190612091565b6020604051808303816000875af1158015610e5e573d6000803e3d6000fd5b505050506040513d601f19601f82011682018060405250810190610e829190612107565b610ec1576040517f08c379a0000000000000000000000000000000000000000000000000000000008152600401610eb8906121a6565b60405180910390fd5b949350505050565b610ed161139c565b6000602083610ee091906121f5565b14610f0c57602082610ef291906121f5565b6020610efe9190612226565b82610f099190611ddb565b91505b81836020018181525050604051808452600081528281016020016040525082905092915050565b60178167ffffffffffffffff1611610f6a57610f648160058460ff16901b60ff1617846110da90919063ffffffff16565b506110b3565b60ff8167ffffffffffffffff1611610fc057610f99601860058460ff16901b17846110da90919063ffffffff16565b50610fba8167ffffffffffffffff166001856110fa9092919063ffffffff16565b506110b2565b61ffff8167ffffffffffffffff161161101757610ff0601960058460ff16901b17846110da90919063ffffffff16565b506110118167ffffffffffffffff166002856110fa9092919063ffffffff16565b506110b1565b63ffffffff8167ffffffffffffffff161161107057611049601a60058460ff16901b17846110da90919063ffffffff16565b5061106a8167ffffffffffffffff166004856110fa9092919063ffffffff16565b506110b0565b61108d601b60058460ff16901b17846110da90919063ffffffff16565b506110ae8167ffffffffffffffff166008856110fa9092919063ffffffff16565b505b5b5b5b505050565b6110c061139c565b6110d28384600001515184855161111c565b905092915050565b6110e261139c565b6110f2838460000151518461120b565b905092915050565b61110261139c565b611113848560000151518585611261565b90509392505050565b61112461139c565b825182111561113257600080fd5b846020015182856111439190611ddb565b111561117857611177856002611168886020015188876111639190611ddb565b6112ef565b611172919061225a565b61130b565b5b6000808651805187602083010193508088870111156111975787860182525b60208701925050505b602084106111de57805182526020826111b99190611ddb565b91506020816111c89190611ddb565b90506020846111d79190612226565b93506111a0565b60006001856020036101000a03905080198251168184511681811785525050508692505050949350505050565b61121361139c565b83602001518310611239576112388460028660200151611233919061225a565b61130b565b5b83518051602085830101848153818603611254576001820183525b5050508390509392505050565b61126961139c565b8460200151848361127a9190611ddb565b11156112a2576112a185600286856112929190611ddb565b61129c919061225a565b61130b565b5b60006001836101006112b491906123cf565b6112be9190612226565b905085518386820101858319825116178152815185880111156112e15784870182525b505085915050949350505050565b60008183111561130157829050611305565b8190505b92915050565b60008260000151905061131e8383610ec9565b5061132983826110b8565b50505050565b6040518060a0016040528060008019168152602001600073ffffffffffffffffffffffffffffffffffffffff16815260200160007bffffffffffffffffffffffffffffffffffffffffffffffffffffffff191681526020016000815260200161139661139c565b81525090565b604051806040016040528060608152602001600081525090565b6000604051905090565b600080fd5b600080fd5b6000819050919050565b6113dd816113ca565b81146113e857600080fd5b50565b6000813590506113fa816113d4565b92915050565b6000819050919050565b61141381611400565b811461141e57600080fd5b50565b6000813590506114308161140a565b92915050565b6000806040838503121561144d5761144c6113c0565b5b600061145b858286016113eb565b925050602061146c85828601611421565b9150509250929050565b61147f81611400565b82525050565b600060208201905061149a6000830184611476565b92915050565b600081519050919050565b600082825260208201905092915050565b60005b838110156114da5780820151818401526020810190506114bf565b60008484015250505050565b6000601f19601f8301169050919050565b6000611502826114a0565b61150c81856114ab565b935061151c8185602086016114bc565b611525816114e6565b840191505092915050565b6000602082019050818103600083015261154a81846114f7565b905092915050565b600081519050919050565b600082825260208201905092915050565b600061157982611552565b611583818561155d565b93506115938185602086016114bc565b61159c816114e6565b840191505092915050565b600060208201905081810360008301526115c1818461156e565b905092915050565b600073ffffffffffffffffffffffffffffffffffffffff82169050919050565b60006115f4826115c9565b9050919050565b611604816115e9565b82525050565b600060208201905061161f60008301846115fb565b92915050565b600080fd5b600080fd5b7f4e487b7100000000000000000000000000000000000000000000000000000000600052604160045260246000fd5b611667826114e6565b810181811067ffffffffffffffff821117156116865761168561162f565b5b80604052505050565b60006116996113b6565b90506116a5828261165e565b919050565b600067ffffffffffffffff8211156116c5576116c461162f565b5b6116ce826114e6565b9050602081019050919050565b82818337600083830152505050565b60006116fd6116f8846116aa565b61168f565b9050828152602081018484840111156117195761171861162a565b5b6117248482856116db565b509392505050565b600082601f83011261174157611740611625565b5b81356117518482602086016116ea565b91505092915050565b60008060408385031215611771576117706113c0565b5b600061177f858286016113eb565b925050602083013567ffffffffffffffff8111156117a05761179f6113c5565b5b6117ac8582860161172c565b9150509250929050565b6117bf816115e9565b81146117ca57600080fd5b50565b6000813590506117dc816117b6565b92915050565b6000602082840312156117f8576117f76113c0565b5b6000611806848285016117cd565b91505092915050565b7f536f75726365206d75737420626520746865206f7261636c65206f662074686560008201527f2072657175657374000000000000000000000000000000000000000000000000602082015250565b600061186b60288361155d565b91506118768261180f565b604082019050919050565b6000602082019050818103600083015261189a8161185e565b9050919050565b7f4e487b7100000000000000000000000000000000000000000000000000000000600052602260045260246000fd5b600060028204905060018216806118e857607f821691505b6020821081036118fb576118fa6118a1565b5b50919050565b7f4d7573742062652070726f706f736564206f776e657200000000000000000000600082015250565b600061193760168361155d565b915061194282611901565b602082019050919050565b600060208201905081810360008301526119668161192a565b9050919050565b600081905092915050565b6000611983826114a0565b61198d818561196d565b935061199d8185602086016114bc565b80840191505092915050565b60006119b58284611978565b915081905092915050565b60008190508160005260206000209050919050565b60006020601f8301049050919050565b600082821b905092915050565b600060088302611a227fffffffffffffffffffffffffffffffffffffffffffffffffffffffffffffffff826119e5565b611a2c86836119e5565b95508019841693508086168417925050509392505050565b6000819050919050565b6000611a69611a64611a5f84611400565b611a44565b611400565b9050919050565b6000819050919050565b611a8383611a4e565b611a97611a8f82611a70565b8484546119f2565b825550505050565b600090565b611aac611a9f565b611ab7818484611a7a565b505050565b5b81811015611adb57611ad0600082611aa4565b600181019050611abd565b5050565b601f821115611b2057611af1816119c0565b611afa846119d5565b81016020851015611b09578190505b611b1d611b15856119d5565b830182611abc565b50505b505050565b600082821c905092915050565b6000611b4360001984600802611b25565b1980831691505092915050565b6000611b5c8383611b32565b9150826002028217905092915050565b611b75826114a0565b67ffffffffffffffff811115611b8e57611b8d61162f565b5b611b9882546118d0565b611ba3828285611adf565b600060209050601f831160018114611bd65760008415611bc4578287015190505b611bce8582611b50565b865550611c36565b601f198416611be4866119c0565b60005b82811015611c0c57848901518255600182019150602085019450602081019050611be7565b86831015611c295784890151611c25601f891682611b32565b8355505b6001600288020188555050505b505050505050565b600081549050611c4d816118d0565b9050919050565b60008190508160005260206000209050919050565b60008190508160005260206000209050919050565b601f821115611cbf57611c9081611c54565b611c99846119d5565b81016020851015611ca8578190505b611cbc611cb4856119d5565b830182611abc565b50505b505050565b818103611cd2575050611daa565b611cdb82611c3e565b67ffffffffffffffff811115611cf457611cf361162f565b5b611cfe82546118d0565b611d09828285611c7e565b6000601f831160018114611d385760008415611d26578287015490505b611d308582611b50565b865550611da3565b601f198416611d4687611c69565b9650611d5186611c54565b60005b82811015611d7957848901548255600182019150600185019450602081019050611d54565b86831015611d965784890154611d92601f891682611b32565b8355505b6001600288020188555050505b5050505050505b565b7f4e487b7100000000000000000000000000000000000000000000000000000000600052601160045260246000fd5b6000611de682611400565b9150611df183611400565b9250828201905080821115611e0957611e08611dac565b5b92915050565b611e18816113ca565b82525050565b60007fffffffff0000000000000000000000000000000000000000000000000000000082169050919050565b611e5381611e1e565b82525050565b600061010082019050611e6f600083018b6115fb565b611e7c602083018a611476565b611e896040830189611e0f565b611e9660608301886115fb565b611ea36080830187611e4a565b611eb060a0830186611476565b611ebd60c0830185611476565b81810360e0830152611ecf81846114f7565b90509998505050505050505050565b7f4f6e6c792063616c6c61626c65206279206f776e657200000000000000000000600082015250565b6000611f1460168361155d565b9150611f1f82611ede565b602082019050919050565b60006020820190508181036000830152611f4381611f07565b9050919050565b7f43616e6e6f74207472616e7366657220746f2073656c66000000000000000000600082015250565b6000611f8060178361155d565b9150611f8b82611f4a565b602082019050919050565b60006020820190508181036000830152611faf81611f73565b9050919050565b6000611fd1611fcc611fc7846115c9565b611a44565b6115c9565b9050919050565b6000611fe382611fb6565b9050919050565b6000611ff582611fd8565b9050919050565b60008160601b9050919050565b600061201482611ffc565b9050919050565b600061202682612009565b9050919050565b61203e61203982611fea565b61201b565b82525050565b6000819050919050565b61205f61205a82611400565b612044565b82525050565b6000612071828561202d565b601482019150612081828461204e565b6020820191508190509392505050565b60006060820190506120a660008301866115fb565b6120b36020830185611476565b81810360408301526120c581846114f7565b9050949350505050565b60008115159050919050565b6120e4816120cf565b81146120ef57600080fd5b50565b600081519050612101816120db565b92915050565b60006020828403121561211d5761211c6113c0565b5b600061212b848285016120f2565b91505092915050565b7f756e61626c6520746f207472616e73666572416e6443616c6c20746f206f726160008201527f636c650000000000000000000000000000000000000000000000000000000000602082015250565b600061219060238361155d565b915061219b82612134565b604082019050919050565b600060208201905081810360008301526121bf81612183565b9050919050565b7f4e487b7100000000000000000000000000000000000000000000000000000000600052601260045260246000fd5b600061220082611400565b915061220b83611400565b92508261221b5761221a6121c6565b5b828206905092915050565b600061223182611400565b915061223c83611400565b925082820390508181111561225457612253611dac565b5b92915050565b600061226582611400565b915061227083611400565b925082820261227e81611400565b9150828204841483151761229557612294611dac565b5b5092915050565b60008160011c9050919050565b6000808291508390505b60018511156122f3578086048111156122cf576122ce611dac565b5b60018516156122de5780820291505b80810290506122ec8561229c565b94506122b3565b94509492505050565b60008261230c57600190506123c8565b8161231a57600090506123c8565b8160018114612330576002811461233a57612369565b60019150506123c8565b60ff84111561234c5761234b611dac565b5b8360020a91508482111561236357612362611dac565b5b506123c8565b5060208310610133831016604e8410600b841016171561239e5782820a90508381111561239957612398611dac565b5b6123c8565b6123ab84848460016122a9565b925090508184048111156123c2576123c1611dac565b5b81810290505b9392505050565b60006123da82611400565b91506123e583611400565b92506124127fffffffffffffffffffffffffffffffffffffffffffffffffffffffffffffffff84846122fc565b90509291505056fe68747470733a2f2f697066732e696f2f697066732f516d5a6773767241316f3143384247437278366d4854715231556931587162437274624d5672524c4874755056443f66696c656e616d653d6269672d6170692d726573706f6e73652e6a736f6e68747470733a2f2f6170692e636f696e6765636b6f2e636f6d2f6170692f76332f73696d706c652f70726963653f6964733d657468657265756d2676735f63757272656e636965733d757364a264697066735822122033b81c6e530ced22830ec355ef4b7677d7325b99ae2544ae249632f99c7e8ec664736f6c63430008110033",
  "devdoc": {
    "kind": "dev",
    "methods": {},
    "version": 1
  },
  "userdoc": {
    "kind": "user",
    "methods": {
      "acceptOwnership()": {
        "notice": "Allows an ownership transfer to be completed by the recipient."
      },
      "owner()": {
        "notice": "Get the current owner"
      },
      "transferOwnership(address)": {
        "notice": "Allows an owner to begin transferring ownership to a new address, pending."
      }
    },
    "version": 1
  },
  "storageLayout": {
    "storage": [
      {
        "astId": 319,
        "contract": "contracts/OracleContract.sol:OracleContract",
        "label": "s_ens",
        "offset": 0,
        "slot": "0",
        "type": "t_contract(ENSInterface)1156"
      },
      {
        "astId": 321,
        "contract": "contracts/OracleContract.sol:OracleContract",
        "label": "s_ensNode",
        "offset": 0,
        "slot": "1",
        "type": "t_bytes32"
      },
      {
        "astId": 324,
        "contract": "contracts/OracleContract.sol:OracleContract",
        "label": "s_link",
        "offset": 0,
        "slot": "2",
        "type": "t_contract(LinkTokenInterface)1251"
      },
      {
        "astId": 327,
        "contract": "contracts/OracleContract.sol:OracleContract",
        "label": "s_oracle",
        "offset": 0,
        "slot": "3",
        "type": "t_contract(OperatorInterface)1331"
      },
      {
        "astId": 330,
        "contract": "contracts/OracleContract.sol:OracleContract",
        "label": "s_requestCount",
        "offset": 0,
        "slot": "4",
        "type": "t_uint256"
      },
      {
        "astId": 334,
        "contract": "contracts/OracleContract.sol:OracleContract",
        "label": "s_pendingRequests",
        "offset": 0,
        "slot": "5",
        "type": "t_mapping(t_bytes32,t_address)"
      },
      {
        "astId": 889,
        "contract": "contracts/OracleContract.sol:OracleContract",
        "label": "s_owner",
        "offset": 0,
        "slot": "6",
        "type": "t_address"
      },
      {
        "astId": 891,
        "contract": "contracts/OracleContract.sol:OracleContract",
        "label": "s_pendingOwner",
        "offset": 0,
        "slot": "7",
        "type": "t_address"
      },
      {
        "astId": 2393,
        "contract": "contracts/OracleContract.sol:OracleContract",
        "label": "data",
        "offset": 0,
        "slot": "8",
        "type": "t_bytes_storage"
      },
      {
        "astId": 2395,
        "contract": "contracts/OracleContract.sol:OracleContract",
        "label": "image_url",
        "offset": 0,
        "slot": "9",
        "type": "t_string_storage"
      },
      {
        "astId": 2397,
        "contract": "contracts/OracleContract.sol:OracleContract",
        "label": "oracle",
        "offset": 0,
        "slot": "10",
        "type": "t_address"
      },
      {
        "astId": 2399,
        "contract": "contracts/OracleContract.sol:OracleContract",
        "label": "jobId",
        "offset": 0,
        "slot": "11",
        "type": "t_bytes32"
      },
      {
        "astId": 2401,
        "contract": "contracts/OracleContract.sol:OracleContract",
        "label": "fee",
        "offset": 0,
        "slot": "12",
        "type": "t_uint256"
      },
      {
        "astId": 2403,
        "contract": "contracts/OracleContract.sol:OracleContract",
        "label": "result",
        "offset": 0,
        "slot": "13",
        "type": "t_uint256"
      }
    ],
    "types": {
      "t_address": {
        "encoding": "inplace",
        "label": "address",
        "numberOfBytes": "20"
      },
      "t_bytes32": {
        "encoding": "inplace",
        "label": "bytes32",
        "numberOfBytes": "32"
      },
      "t_bytes_storage": {
        "encoding": "bytes",
        "label": "bytes",
        "numberOfBytes": "32"
      },
      "t_contract(ENSInterface)1156": {
        "encoding": "inplace",
        "label": "contract ENSInterface",
        "numberOfBytes": "20"
      },
      "t_contract(LinkTokenInterface)1251": {
        "encoding": "inplace",
        "label": "contract LinkTokenInterface",
        "numberOfBytes": "20"
      },
      "t_contract(OperatorInterface)1331": {
        "encoding": "inplace",
        "label": "contract OperatorInterface",
        "numberOfBytes": "20"
      },
      "t_mapping(t_bytes32,t_address)": {
        "encoding": "mapping",
        "key": "t_bytes32",
        "label": "mapping(bytes32 => address)",
        "numberOfBytes": "32",
        "value": "t_address"
      },
      "t_string_storage": {
        "encoding": "bytes",
        "label": "string",
        "numberOfBytes": "32"
      },
      "t_uint256": {
        "encoding": "inplace",
        "label": "uint256",
        "numberOfBytes": "32"
      }
    }
  }
}